:04000000C3EF01F059
:10000800E9CF27F0EACF28F0E1CF29F0C3ED0FF0D0
:10001800D8CF81F0E8CF82F0E0CF83F0E9CF84F049
:10002800EACF85F0E1CF86F0E2CF87F0D9CF88F02C
:10003800DACF89F0F3CF8AF0F4CF8BF0F6CF8CF0DB
:10004800F7CF8DF0F8CF8EF0F5CF8FF052C090F04B
:1000580053C091F054C092F055C093F056C094F03C
:1000680057C095F058C096F059C097F014EE33F089
:10007800F2A409D0D59E37EC15F0F294670ED76E2E
:100088006A0ED66ED58E9EAC4BD137EC15F001C0FA
:10009800E6FF02C0E6FF03C0E6FF4DC036F04EC0E3
:1000A80037F03BEC22F036C0E6FF37C0E6FF38C039
:1000B800E6FF10EC1FF052B025D1818AD59E48EC9E
:1000C80020F0910EE66E740EE66E0BEC21F0EC0E4D
:1000D800E66E7A0EE66E0BEC21F0EC0EE66E7A0E0A
:1000E800E66E0BEC21F0D00EE66E730EE66E0BECAE
:1000F80021F0EC0EE66E7A0EE66E0BEC21F02D0E7A
:10010800E66E7C0EE66E0BEC21F0E8EC22F08EEC4D
:100118001BF052C016F053C017F084EC21F016D033
:10012800EC0EE66E7C0EE66E0BEC21F0C10EE66E70
:100138007F0EE66E0BEC21F0E8EC22F08EEC1BF063
:1001480052C016F053C017F084EC21F0040E1A18B0
:100158001B10D8A4E5D7040E1A181B10D8A4DFD09A
:10016800240EE66E780EE66E0BEC21F0160EE66EA7
:100178007B0EE66E0BEC21F02D0EE66E7C0EE66E25
:100188000BEC21F0E8EC22F017EC22F046D0E00E60
:10019800476E7F0E486E450EE66E49C0E6FF4AC0C0
:1001A800E6FFFDEC22F0D58E819A9F0EE66E790E61
:1001B800E66E0BEC21F039D0DE0E476E7F0E486EEE
:1001C800440EE66E49C0E6FF4AC0E6FFFDEC22F0A9
:1001D800D59E9D9C819AA00EE66E7A0EE66E0BEC7B
:1001E80021F023D08D0EE66E7D0EE66E0BEC21F02D
:1001F800E00E476E7F0E486E450EE66E49C0E6FF7C
:100208004AC0E6FFFDEC22F0D58E819A9F0EE66E7D
:10021800790EE66E0BEC21F008D01D50300AD8B4E8
:10022800CBD7010AD8B4B3D7DDD7E8EC22F0EC0E6F
:10023800E66E7A0EE66E0BEC21F0580EE66E780E3E
:10024800E66E0BEC21F0EC0EE66E7A0EE66E0BEC29
:1002580021F0180EE66E7C0EE66E0BEC21F0E8EC51
:1002680022F010041110D8B481A812D066EC1FF047
:10027800ACA2FED71CC0ADFF1CC01DF0E8EC22F0FC
:1002880002D066EC1FF0440E1C18D8B433D0F9D74E
:100298002BEC23F052501D6EACA2FED71DC0ADFF53
:1002A8000D0EAE18D8B426D0FBD70AEC19F0190EEB
:1002B800E66E790EE66E0BEC21F0E8EC22F02FD01A
:1002C800190EE66E790EE66E0BEC21F0E8EC22F0E2
:1002D80026D05B0EE66E7F0EE66E0BEC21F0E8ECA6
:1002E80022F0190EE66E790EE66E0BEC21F0E8ECC2
:1002F80022F015D01D50300AD8B4E2D7010AD8B47C
:10030800D4D7E7D781BA02D0818A01D0819A820EE8
:100318000001806FDE0EE82EFED7802FFCD79E9C52
:1003280097C059F096C058F095C057F094C056F051
:1003380093C055F092C054F091C053F090C052F061
:100348008FC0F5FF8EC0F8FF8DC0F7FF8CC0F6FF99
:100358008BC0F4FF8AC0F3FF89C0DAFF88C0D9FFD9
:1003680087C0E2FF86C0E1FF85C0EAFF84C0E9FFDD
:1003780083C0E0FF82C0E8FF81C0D8FF100010EE04
:1003880098F09AEF22F0160EE126000EE222FE0EF9
:10039800536EFF0E546EE70EE1245C6EFF0EE220F2
:1003A8005D6E53505C2654505D22FE0E5DC0E3FF27
:1003B800FD0E5CC0E3FFB2EF09F0FF0EE3CF52F091
:1003C800250E5218D8B41AD0E70EE3CFD9FFE80E9D
:1003D800E3CFDAFFFF0EE3CFDFFFE70EE350010FB5
:1003E800526EE70E52C0E3FF526AE80EE350522005
:1003F800526EE80E52C0E3FFB2EF09F0F90EE36A5D
:10040800FA0EE36AFB0EE36AFC0EE36AE150E50FBD
:10041800D96EE250DA6EFF0EDA22DECFF6FFDDCFBC
:10042800F7FF0800F550E66E7EEC22F052A058D097
:10043800F90EE36AFA0EE36A0A0EE66E000EE66E3D
:10044800F70EE3CFE6FFE3CFE6FFB6EC1FF0F90EB9
:1004580052C0E3FFFA0E53C0E3FFD00E536EFF0EF7
:10046800546EE150E50FD96EE250DA6EFF0EDA22D3
:10047800DECFF6FFDDCFF7FF0800F5505C6E5D6A52
:1004880053505C2654505D22E150F90FD96EE2506A
:10049800DA6EFF0EDA225C50DE265D50DD22E50EB4
:1004A800E350010F526EE50E52C0E3FF526AE60EAA
:1004B800E3505220526EE60E52C0E3FFE150E50FC2
:1004C800D96EE250DA6EFF0EDA22DECFF6FFDDCF0C
:1004D800F7FF0800F550E66E7EEC22F052B0ACD77C
:1004E800E150E50FD96EE250DA6EFF0EDA22DECF68
:1004F800F6FFDDCFF7FF0800F5502E0AD8A461D02B
:10050800FC0EE38CE50EE350010F526EE50E52C06F
:10051800E3FF526AE60EE3505220526EE60E52C0D6
:10052800E3FFF50EE36AF60EE36A38D00A0EE66ECC
:10053800000EE66EF30EE3CFE6FFE3CFE6FFB6EC80
:100548001FF0E150E50FD96EE250DA6EFF0EDA22A5
:10055800DECFF6FFDDCFF7FF0800F5505226000E7C
:100568005322D00E5C6EFF0E5D6E5C5052265D50BD
:100578005322F50E52C0E3FFF60E53C0E3FFE50E1B
:10058800E350010F526EE50E52C0E3FF526AE60EC9
:10059800E3505220526EE60E52C0E3FFE150E50FE1
:1005A800D96EE250DA6EFF0EDA22DECFF6FFDDCF2B
:1005B800F7FF0800F550E66E7EEC22F052A00BD053
:1005C800B5D7F50EE36AF60EE36AFC0EE38803D0AE
:1005D800FC0EE38427D0E150E50FD96EE250DA6EC5
:1005E800FF0EDA22DFCF53F0010EDE26DFCF54F004
:1005F800000EDD2253C0F6FF54C0F7FF0800FF0EBF
:10060800F5CFE3FFFF0EE350000AD8B4CEEF09F0B0
:10061800640AD8B407D0020AD8B4DAD70F0AD8A423
:10062800B2EF09F0E150FB0FD96EE250DA6EFF0E1F
:10063800DA22DE52070EDD14D8B4C4EF07F0FC0E40
:10064800E3A80AD0060E536E000E546EF50E53C082
:10065800E3FFF60E54C0E3FFFD0EE3CF52F0030EA6
:10066800525EFD0E52C0E3FFFE0EE3CF52F0000EC5
:10067800525AFE0E52C0E3FFFD0EE3CFD9FFFE0E25
:10068800E3CFDAFFDECF5BF0DECF5CF0DECF5DF0EC
:10069800F20E5BC0E3FFF30E5CC0E3FFF40E5DC037
:1006A800E3FFF40EE3AE19D0F20EE3CFE6FFE3CF9B
:1006B800E6FFE3CFE6FFCFEC22F0F20E52C0E3FFF5
:1006C800F30E53C0E3FFF40E54C0E3FFFB0EE350F8
:1006D8000309526EFB0E52C0E3FFF70EE36AF80EF1
:1006E800E36AF20EE35007E1F30EE35004E1F40E7F
:1006F800E350D8B4CAD0820E536EFF0E546EF20E79
:10070800E124D96EFF0EE220DA6EDECF5AF0DECF9A
:100718005BF0DECF5CF0DECF5DF0100E05D0D89038
:100728005D325C325B325A32E82EF9D75AC058F043
:100738005BC059F0FF0E5816000E59165350582634
:1007480054505922F70E58C0E3FFF80E59C0E3FF82
:10075800E150F70FD96EE250DA6EFF0EDA22DE06AC
:10076800000EDD5A030EE66E000EE66EF50EE3CFC0
:10077800E6FFE3CFE6FFB6EC1FF0F70E52C0E3FF4B
:10078800F80E53C0E3FF0A0EE66E000EE66EF50E95
:10079800E3CFE6FFE3CFE6FF28EC1CF0F70E52C0EC
:1007A800E3FFF80E53C0E3FFF80EE3AE0AD0E150C2
:1007B800F70FD96EE250DA6EFF0EDA22DE06000E6F
:1007C800DD5AF70EE3500008E66EE0EC09F0EE0E95
:1007D80052C0E3FFEF0E53C0E3FFF00E54C0E3FF37
:1007E800F20EE3CFE6FFE3CFE6FFE3CFE6FFEB0E43
:1007F800E3CFE6FFE3CFE6FFE3CFE6FFB6EC0EF08C
:10080800EE0E52C0E3FFEF0E53C0E3FFF00E54C0EC
:10081800E3FF000EE66E800EE66E3F0EE66EEB0E10
:10082800E3CFE6FFE3CFE6FFE3CFE6FF10EC1FF0F0
:1008380052B00BD0E150F70FD96EE250DA6EFF0ECE
:10084800DA22DE06000EDD5A20D0000EE66E200EFB
:10085800E66E410EE66EEB0EE3CFE6FFE3CFE6FF72
:10086800E3CFE6FF10EC1FF052A00FD0F70EE350D5
:10087800010F526EF70E52C0E3FF526AF80EE350B2
:100888005220526EF80E52C0E3FFF60EE3BE0AD0B5
:10089800F60EE35024E1F50EE3CF52F00D0E525E52
:1008A800D8B01DD0F50EE350E66E5BEC14F052C0E4
:1008B800E6FF53C0E6FF54C0E6FFEF0EE3CFE6FFC6
:1008C800E3CFE6FFE3CFE6FF00EC0CF0F20E52C0F8
:1008D800E3FFF30E53C0E3FFF40E54C0E3FFF80E3A
:1008E800E3BE0AD0F80EE35041E1F70EE3CF52F031
:1008F8000A0E525ED8B03AD0F20EE35007E1F30E7A
:10090800E35004E1F40EE350D8B48FD0F20EE3CFF5
:10091800E6FFE3CFE6FFE3CFE6FF4FEC18F052C067
:1009280056F053C057F054C058F055C059F0000E57
:100938005A6E5B6A5C6A5D6A5D50591808E15C50E2
:10094800581805E15B50571802E15A505618D8A4B8
:100958006CD0F80EE3BE69D0F80EE35007E1F70E4D
:10096800E3CF52F0020E525ED8A05FD0700EE66E52
:10097800890EE66E400EE66EEB0EE3CFE6FFE3CFA0
:10098800E6FFE3CFE6FF10EC1FF052B009D0E150CC
:10099800F70FD96EE250DA6EFF0EDA22F70E08D0A2
:1009A800E150F70FD96EE250DA6EFF0EDA22F80E38
:1009B800DE26FF0EDD22F70EE350E66EE0EC09F0CE
:1009C800EE0E52C0E3FFEF0E53C0E3FFF00E54C02B
:1009D800E3FFEE0EE3CFE6FFE3CFE6FFE3CFE6FF6C
:1009E800EF0EE3CFE6FFE3CFE6FFE3CFE6FFC0EC91
:1009F80010F0EA0E52C0E3FFEB0E53C0E3FFEC0E1B
:100A080054C0E3FFED0E55C0E3FF000E5B6E000E11
:100A18005C6E000E5D6EF20E5BC0E3FFF30E5CC011
:100A2800E3FFF40E5DC0E3FF3CD0F20EE3CFE6FF38
:100A3800E3CFE6FFE3CFE6FF4FEC18F0EA0E52C033
:100A4800E3FFEB0E53C0E3FFEC0E54C0E3FFED0EE3
:100A580055C0E3FFEA0EE3CFE6FFE3CFE6FFE3CFBF
:100A6800E6FFE3CFE6FFBBEC21F052C0E6FF53C040
:100A7800E6FF54C0E6FFEF0EE3CFE6FFE3CFE6FF65
:100A8800E3CFE6FF5DEC22F0F20E52C0E3FFF30E77
:100A980053C0E3FFF40E54C0E3FFF70EE36AF80E09
:100AA800E36AFF0EE36AE32AFF0EE350040D130E18
:100AB800F324F66E730EF420F76EEA0EE3CF52F0CD
:100AC8000900F550525CEB0EE3CF52F00900F550E7
:100AD8005258EC0EE3CF52F00900F5505258ED0E83
:100AE800E3CF52F00900F5505258D8A009D0FF0EB4
:100AF800E32AFF0EE3CF52F00A0E5218D8A4D4D737
:100B0800FF0EE350536E546A53BE5406F50EE3507D
:100B18005326F60EE3505422F70EE3505326F80EF0
:100B2800E3505422F90EE3CF52F05350525EF90EBF
:100B380052C0E3FFFA0EE3CF52F05450525AFA0E65
:100B480052C0E3FFF50EE3CF52F0F60EE350521019
:100B5800D8B40AD0E150F90FD96EE250DA6EFF0E20
:100B6800DA22DE06000EDD5AFB0EE3CF5DF0030E3F
:100B78005D16D8B423D0E150F90FD96EE250DA6E81
:100B8800FF0EDA22DE06000EDD5A18D0E70EE3CF9C
:100B9800D9FFE80EE3CFDAFF200EDF6EE70EE35051
:100BA800010F526EE70E52C0E3FF526AE80EE3509F
:100BB8005220526EE80E52C0E3FFDDD7FA0EE3BEB4
:100BC80007D0FA0EE350E2E1F90EE304D8B0DED71D
:100BD800FB0EE3CF5DF0030E5D16D8B46DD0E70EC3
:100BE800E3CFD9FFE80EE3CFDAFF2D0EDF6EE70E75
:100BF800E350010F526EE70E52C0E3FF526AE80E4F
:100C0800E3505220526EE80E52C0E3FF55D0FF0E5B
:100C1800E350040D130EF324F66E730EF420F76EF2
:100C28000900F5CFE6FF0900F5CFE6FF0900F5CF8B
:100C3800E6FF0900F5CFE6FFE60EE3CFE6FFE3CFD8
:100C4800E6FFE3CFE6FFE3CFE6FF4DEC1DF0EE0E47
:100C580052C0E3FFEF0E53C0E3FFF00E54C0E3FFB2
:100C6800F10E55C0E3FF0A0EE66E000EE66E000EAA
:100C7800E66E000EE66EEA0EE3CFE6FFE3CFE6FF90
:100C8800E3CFE6FFE3CFE6FF4EEC1EF0EE0E52C0D8
:100C9800E3FFEF0E53C0E3FFF00E54C0E3FFF10E85
:100CA80055C0E3FFE70EE3CFD9FFE80EE3CFDAFF45
:100CB800EE0EE350300F9AD7FF0EE3CF52F0FF0E3F
:100CC8005226FF0E52C0E3FFFF0EE328D8B422D00D
:100CD8009ED7E70EE3CFD9FFE80EE3CFDAFF300E59
:100CE800DF6EE70EE350010F526EE70E52C0E3FFCE
:100CF800526AE80EE3505220526EE80E52C0E3FFEB
:100D0800E150F70FD96EE250DA6EFF0EDA22DE06F6
:100D1800000EDD5AF80EE3BE07D0F80EE350D9E115
:100D2800F70EE304D8B0D5D7F60EE3BE0ED0F60E14
:100D3800E35007E1F50EE3CF52F0090E525ED8A05A
:100D480004D0FF0EE36AE38606D0F50EE3CF52F037
:100D5800FF0E52C0E3FFFF0EE350536E546A53BEBA
:100D68005406F50EE3CF52F05350525EF50E52C0C2
:100D7800E3FFF60EE3CF52F05450525AF60E52C02B
:100D8800E3FFFF0EE350D8B417D0E70EE3CFD9FF47
:100D9800E80EE3CFDAFF2E0EDF6EE70EE350010F09
:100DA800526EE70E52C0E3FF526AE80EE35052203B
:100DB800526EE80E52C0E3FFF20EE3CFE6FFE3CF38
:100DC800E6FFE3CFE6FFFC0EE350E66EE0EC09F049
:100DD80052C0E6FF53C0E6FF54C0E6FFB6EC0EF083
:100DE80052C0E6FF53C0E6FF54C0E6FF4FEC18F0D0
:100DF80084D0FF0EE350040D130EF324F66E730E29
:100E0800F420F76E0900F5CFE6FF0900F5CFE6FFFD
:100E18000900F5CFE6FF0900F5CFE6FFE60EE3CFC0
:100E2800E6FFE3CFE6FFE3CFE6FFE3CFE6FF4DECD7
:100E38001DF0EE0E52C0E3FFEF0E53C0E3FFF00EBD
:100E480054C0E3FFF10E55C0E3FF0A0EE66E000E34
:100E5800E66E000EE66E000EE66EEA0EE3CFE6FFE3
:100E6800E3CFE6FFE3CFE6FFE3CFE6FF4EEC1EF06D
:100E7800EE0E52C0E3FFEF0E53C0E3FFF00E54C076
:100E8800E3FFF10E55C0E3FFE70EE3CFD9FFE80E0D
:100E9800E3CFDAFFEE0EE350300FDF6EE70EE350DC
:100EA800010F526EE70E52C0E3FF526AE80EE3509C
:100EB8005220526EE80E52C0E3FFFF0EE350040DBD
:100EC800130EF324F66E730EF420F76E0900F5CFB7
:100ED800E6FF0900F5CFE6FF0900F5CFE6FF0900B8
:100EE800F5CFE6FFE60EE3CFE6FFE3CFE6FFE3CF7D
:100EF800E6FFE3CFE6FF4EEC1EF0EA0E52C0E3FF3A
:100F0800EB0E53C0E3FFEC0E54C0E3FFED0E55C0EB
:100F1800E3FFFF0EE3CF52F0FF0E5226FF0E52C042
:100F2800E3FFFF0EE328D8B422D063D7E70EE3CF60
:100F3800D9FFE80EE3CFDAFF300EDF6EE70EE3509D
:100F4800010F526EE70E52C0E3FF526AE80EE350FB
:100F58005220526EE80E52C0E3FFE150F50FD96EF1
:100F6800E250DA6EFF0EDA22DE06000EDD5AF50ECA
:100F7800E3CF52F0F60EE3505210D8B4EFD1D6D7E3
:100F8800FD0EE3CF52F0020E525EFD0E52C0E3FF9B
:100F9800FE0EE3CF52F0000E525AFE0E52C0E3FF8F
:100FA800FD0EE3CFD9FFFE0EE3CFDAFFDECF53F01D
:100FB800DDCF54F0EA0E53C0E3FFEB0E54C0E3FF5D
:100FC800526AE3BE5268EC0E52C0E3FFED0E52C007
:100FD800E3FFED0EE3AE18D0FB0EE3500309526EAB
:100FE800FB0E52C0E3FFEA0EE36CEB0EE31EEC0EC1
:100FF800E31EED0EE31E08E3EB0EE32A05E3EC0E19
:10100800E32A02E3ED0EE32AF50EE3CF52F0F60EE3
:10101800E3505210D8A41CD0EA0EE35019E1EB0EAD
:10102800E35016E1EC0EE35013E1ED0EE350D8A4C3
:101038000FD0F50EE350010F526EF50E52C0E3FFCC
:10104800526AF60EE3505220526EF60E52C0E3FF7B
:10105800FF0EE36AE32AFF0EE350040D130EF32498
:10106800F66E730EF420F76EEA0EE3CF52F0090025
:10107800F550525CEB0EE3CF52F00900F550525890
:10108800EC0EE3CF52F00900F5505258ED0EE3CFC5
:1010980052F00900F5505258D8A009D0FF0EE32AA3
:1010A800FF0EE3CF52F00A0E5218D8A4D4D7F50E8B
:1010B800E3CF53F0F60EE3CF54F0FF0EE3CF5DF02D
:1010C800800E5DBE7F0E526E53505D5C5450800A98
:1010D8005258D8B007D0F50EE3CF52F0FF0E52C0E9
:1010E800E3FF20D0FF0EE3CF5DF0F50EE3CF53F022
:1010F800F60EE3CF54F05450800A526E5D50535CA4
:10110800800E5DBE7F0E5258D8B00CD0FF0EE35053
:10111800536E546A53BE5406F50E53C0E3FFF60EE1
:1011280054C0E3FFF90EE3CF52F0FA0EE350521029
:10113800D8B411D0FB0EE3CF5DF0030E5D16D8B422
:101148000AD0E150F90FD96EE250DA6EFF0EDA22BA
:10115800DE06000EDD5AFC0EE3AC2AD0E150F50F96
:10116800D96EE250DA6EFF0EDA22F90EE350DE5C39
:10117800DE50800A526EFA0EE350800A5258D8B0F8
:1011880013D0F90EE350526EF50EE350525EF90E8D
:1011980052C0E3FFFA0EE350526EF60EE350525A75
:1011A800FA0E52C0E3FF04D0F90EE36AFA0EE36ABE
:1011B800F90EE3CF53F0FA0EE3CF54F0FF0EE3CF6E
:1011C8005DF0800E5DBE7F0E526E53505D5C5450D4
:1011D800800A5258D8B017D0FF0EE350536E546AA5
:1011E80053BE5406F90EE3CF52F05350525EF90E37
:1011F80052C0E3FFFA0EE3CF52F05450525AFA0E9F
:1012080052C0E3FF04D0F90EE36AFA0EE36AF90E5E
:10121800E3CF52F0FA0EE3505210D8B425D0E70EBF
:10122800E3CFD9FFE80EE3CFDAFF200EDF6EE70E3B
:10123800E350010F526EE70E52C0E3FF526AE80E08
:10124800E3505220526EE80E52C0E3FFE150F90F0E
:10125800D96EE250DA6EFF0EDA22DE06000EDD5A93
:10126800DE50DE10D8A4DBD7FB0EE3CF5DF0030E13
:101278005D16D8B464D0E70EE3CFD9FFE80EE3CF0C
:10128800DAFF2D0EDF6EE70EE350010F526EE70E08
:1012980052C0E3FF526AE80EE3505220526EE80E45
:1012A80052C0E3FF4CD00A0EE66E000EE66E000E4A
:1012B800E66E000EE66EF10EE3CF53F0F20EE3CFCA
:1012C80054F0D89053365436D89053365436130EBB
:1012D8005324F66E730E5420F76E0900F5CFE6FF1F
:1012E8000900F5CFE6FF0900F5CFE6FF0900F5CFC5
:1012F800E6FFE20EE3CFE6FFE3CFE6FFE3CFE6FF4C
:10130800E3CFE6FF4DEC1DF052C0E6FF53C0E6FF09
:1013180054C0E6FF55C0E6FF4EEC1EF052C05DF02B
:10132800300E5D26FF0E5DC0E3FFE70EE3CFD9FF69
:10133800E80EE3CFDAFFFF0EE3CFDFFFA4D7E150DB
:10134800F50FD96EE250DA6EFF0EDA22DE06000ED5
:10135800DD5ADE28A8E1DE28D8A4A5D7E150E50F9C
:10136800D96EE250DA6EFF0EDA22DFCF53F0010EAB
:10137800DE26DFCF54F0000EDD2253C0F6FF54C046
:10138800F7FF0800FF0EF5CFE3FFFF0EE350D8A4E8
:10139800E1EF01F0E70EE3CFD9FFE80EE3CFDAFF84
:1013A800000EDF6EEA0EE126FF0EE222E552E7505C
:1013B800E15E000EE25A1200FF0EE3AE0CD1FF0E02
:1013C800E35000085D6EFF0E5DC0E3FFFF0EE350C3
:1013D800800A120FD8A098D0030EE66E000EE66EB3
:1013E8000A0EE66E000EE66EFB0EE350536E546A6C
:1013F80053BE540653C0E6FF54C0E6FFCEEC1DF0C2
:1014080052C0E6FF53C0E6FFB6EC1FF03B0E522475
:10141800F66E730E5320F76E0900F5CFE6FF09004C
:10142800F5CFE6FF0900F5CFE6FF030EE66E000EE6
:10143800E66E0A0EE66E000EE66E640EE66E000EAE
:10144800E66EF60EE350536E546A53BE540653C00C
:10145800E6FF54C0E6FFCEEC1DF052C0E6FF53C0D5
:10146800E6FF28EC1CF052C0E6FF53C0E6FFB6ECDE
:101478001FF01B0E5226000E53223B0E5224F66E0E
:10148800730E5320F76E0900F5CFE6FF0900F5CF7C
:10149800E6FF0900F5CFE6FF030EE66E000EE66EE6
:1014A800640EE66E000EE66EF50EE350536E546A57
:1014B80053BE540653C0E6FF54C0E6FF28EC1CF0A8
:1014C80052C0E6FF53C0E6FFB6EC1FF0360E5226B8
:1014D800000E53223B0E5224F66E730E5320F76E05
:1014E8000900F5CFE6FF0900F5CFE6FF0900F5CFC3
:1014F800E6FFB6EC0EF052C0E6FF53C0E6FF54C05C
:10150800E6FFB6EC0EF076D1FF0EE350800A750FB9
:10151800D8A059D0030EE66E000EE66E0A0EE66EEF
:10152800000EE66EFB0EE350536E546A53BE54062B
:1015380053C0E6FF54C0E6FFCEEC1DF052C0E6FFF4
:1015480053C0E6FFB6EC1FF03B0E5224F66E730E46
:101558005320F76E0900F5CFE6FF0900F5CFE6FF47
:101568000900F5CFE6FF030EE66E000EE66E0A0EE2
:10157800E66E000EE66EF80EE350536E546A53BEE4
:10158800540653C0E6FF54C0E6FF28EC1CF052C0D6
:10159800E6FF53C0E6FFB6EC1FF01B0E5226000E06
:1015A80053223B0E5224F66E730E5320F76E090039
:1015B800F5CFE6FF0900F5CFE6FF0900F5CFE6FF16
:1015C800B6EC0EF017D1FF0EE350030D3B0EF324DB
:1015D800F66E730E04D1FF0EE350800A120FD8A0E6
:1015E80098D0030EE66E000EE66E0A0EE66E000E4A
:1015F800E66EFB0EE350536E546A53BE540653C056
:10160800E6FF54C0E6FFCEEC1DF052C0E6FF53C023
:10161800E6FFB6EC1FF0620E5224F66E730E5320EE
:10162800F76E0900F5CFE6FF0900F5CFE6FF0900E0
:10163800F5CFE6FF030EE66E000EE66E0A0EE66EC6
:10164800000EE66E640EE66E000EE66EF60EE350D1
:10165800536E546A53BE540653C0E6FF54C0E6FFA7
:10166800CEEC1DF052C0E6FF53C0E6FF28EC1CF09C
:1016780052C0E6FF53C0E6FFB6EC1FF01B0E522621
:10168800000E5322620E5224F66E730E5320F76E2C
:101698000900F5CFE6FF0900F5CFE6FF0900F5CF11
:1016A800E6FF030EE66E000EE66E640EE66E000EB2
:1016B800E66EF50EE350536E546A53BE540653C09B
:1016C800E6FF54C0E6FF28EC1CF052C0E6FF53C00A
:1016D800E6FFB6EC1FF0360E5226000E5322620EBD
:1016E8005224F66E730E5320F76E0900F5CFE6FF0D
:1016F8000900F5CFE6FF0900F5CFE6FFB6EC0EF0DE
:1017080052C0E6FF53C0E6FF54C0E6FFB6EC0EF049
:1017180071D0FF0EE350800A750FD8A059D0030E80
:10172800E66E000EE66E0A0EE66E000EE66EFB0E24
:10173800E350536E546A53BE540653C0E6FF54C078
:10174800E6FFCEEC1DF052C0E6FF53C0E6FFB6EC54
:101758001FF0620E5224F66E730E5320F76E0900C6
:10176800F5CFE6FF0900F5CFE6FF0900F5CFE6FF64
:10177800030EE66E000EE66E0A0EE66E000EE66ECC
:10178800F80EE350536E546A53BE540653C0E6FF36
:1017980054C0E6FF28EC1CF052C0E6FF53C0E6FF39
:1017A800B6EC1FF01B0E5226000E5322620E522476
:1017B800F66E730E5320F76E0900F5CFE6FF0900A9
:1017C800F5CFE6FF0900F5CFE6FFB6EC0EF012D034
:1017D800FF0EE350030D620EF324F66E730EF42031
:1017E800F76E0900F5CF52F00900F5CF53F0090064
:1017F800F5CF54F0E5521200E652E652E6520F0ECB
:101808005D6EFA0EE3CF58F0FB0EE3CF59F0FC0EF5
:10181800E3CF5AF05D28526E04D0D8905A3259322C
:101828005832522EFAD758505D6EFD0E5DC0E3FF58
:101838000F0E5D6EF70EE3CF58F0F80EE3CF59F0B8
:10184800F90EE3CF5AF05D28526E04D0D8905A3280
:1018580059325832522EFAD758505D6EFE0E5DC07E
:10186800E3FFFD0EE350D8B418D0E150FD0FD96E58
:10187800E250DA6EFF0EDA22FE0EE350DE5CD8B0DC
:1018880014D0FD0EE3CF5DF0FE0EE3CF5CF05D50AB
:101898005C5C5D6E180E5D6408D0F70EE3CF52F005
:1018A800F80EE3CF53F0F90E23D0FE0EE350D8B470
:1018B80018D0E150FE0FD96EE250DA6EFF0EDA2230
:1018C800FD0EE350DE5CD8B016D0FE0EE3CF5DF01F
:1018D800FD0EE3CF5CF05D505C5C5D6E180E5D64E0
:1018E8000AD0FA0EE3CF52F0FB0EE3CF53F0FC0E12
:1018F800E3CF54F002D1FF0EE36AE382E384FC0EE7
:10190800E3AE02D0FF0EE38EF90EE3AE02D0FF0E77
:10191800E38CFB0EE38EFC0EE36AF80EE38EF90E01
:10192800E36AE150FD0FD96EE250DA6EFF0EDA225B
:10193800FE0EE350DE5CD8B035D0D890F70EE33613
:10194800F80EE336F90EE336FE0EE306E150FE0F1D
:10195800D96EE250DA6EFF0EDA22FD0EE350DE1881
:10196800D8B413D0FF0EE306FF0EE3CF5DF0070EE9
:101978005D16D8B40AD0E1D7D890FC0EE332FB0E3E
:10198800E332FA0EE332FD0EE32AE150FD0FD96E81
:10199800E250DA6EFF0EDA22FE0EE350DE18D8B4FB
:1019A80041D0EAD7E150FE0FD96EE250DA6EFF0E51
:1019B800DA22FD0EE350DE5CD8B034D0D890FA0EAF
:1019C800E336FB0EE336FC0EE336FD0EE306E1508C
:1019D800FE0FD96EE250DA6EFF0EDA22FD0EE350EA
:1019E800DE18D8B413D0FF0EE306FF0EE3CF5DF088
:1019F800070E5D16D8B40AD0E1D7D890F90EE332B5
:101A0800F80EE332F70EE332FE0EE32AE150FD0F43
:101A1800D96EE250DA6EFF0EDA22FE0EE350DE18BF
:101A2800D8A4EBD7FF0EE3AE11D0FA0EE31EFB0EDF
:101A3800E31EFC0EE31EE150FA0FD96EE250DA6E97
:101A4800FF0EDA22DE2A000EDE22DE22FF0EE3ACD3
:101A580011D0F70EE31EF80EE31EF90EE31EE15057
:101A6800F70FD96EE250DA6EFF0EDA22DE2A000E88
:101A7800DE22DE22FF0EE36AF70EE350526EFA0E04
:101A8800E3505226F70E52C0E3FFF80EE350526EB1
:101A9800FB0EE3505222F80E52C0E3FFF90EE3505A
:101AA800526EFC0EE3505222F90E52C0E3FFF90EBB
:101AB800E3AE14D0F70EE31EF80EE31EF90EE31E94
:101AC800E150F70FD96EE250DA6EFF0EDA22DE2A05
:101AD800000EDE22DE22FF0EE36AE32AFF0EE35049
:101AE800E66EFC0EE350E66EF50EE3CFE6FFE3CFBD
:101AF800E6FFE3CFE6FFC1EC1CF0F70EE126FF0E90
:101B0800E2221200060EE126000EE222F70EE12480
:101B1800D96EFF0EE220DA6EDECF5AF0DECF5BF030
:101B2800DECF5CF0DECF5DF0180E05D0D8905D32C8
:101B38005C325B325A32E82EF9D7FE0E5AC0E3FF08
:101B4800FE0EE350D8A406D0000E526E536A546AB3
:101B5800556A03D1F40EE124D96EFF0EE220DA6E45
:101B6800DECF5AF0DECF5BF0DECF5CF0DECF5DF08B
:101B7800180E05D0D8905D325C325B325A32E82EAE
:101B8800F9D7FF0E5AC0E3FFFF0EE350D8B4DCD7F5
:101B9800F70EE124D96EFF0EE220DA6E000EDE1297
:101BA800000EDE12800EDE12000EDE12F70EE124A9
:101BB800D96EFF0EE220DA6EFF0EDE16FF0EDE167D
:101BC800FF0EDE16000EDE16F40EE124D96EFF0EAF
:101BD800E220DA6E000EDE12000EDE12800EDE1239
:101BE800000EDE12F40EE124D96EFF0EE220DA6E4A
:101BF800FF0EDE16FF0EDE16FF0EDE16000EDE16D8
:101C0800FA0EE36AFB0EE36AFC0EE36AFD0EE36A72
:101C1800FE0EE3CF52F07F0E525EFE0E52C0E3FF7F
:101C2800A00E5D6EFF0EE3505D245C6EE150FE0F6A
:101C3800D96EE250DA6EFF0EDA225C50DF5EFF0EDC
:101C4800E36AE38AD890FA0EE336FB0EE336FC0E1D
:101C5800E336FD0EE336F40EE124D96EFF0EE220E2
:101C6800DA6EF70EE124E96EFF0EE220EA6EDE502E
:101C7800EE5CDE50EE58DE50EE58DE50EE58D8A03E
:101C88001ED0F40EE124D96EFF0EE220DA6EDECF0C
:101C98005AF0DECF5BF0DECF5CF0DECF5DF0F70E02
:101CA800E124D96EFF0EE220DA6E5A50DE5E5B50F8
:101CB800DE5A5C50DE5A5D50DE5AFA0EE380F70EAB
:101CC800E124D96EFF0EE220DA6ED890DE36DE36D9
:101CD800DE36DE36FF0EE350526E010E525EFF0E08
:101CE80052C0E3FFD8A4AED7FE0EE3AE14D0FE0E6A
:101CF800E350800A9F0FD8A027D7D890FD0EE33273
:101D0800FC0EE332FB0EE332FA0EE332FE0EE32A58
:101D1800D8B417D0F2D7FE0EE3CF52F01F0E52649C
:101D28000CD012D7D890FA0EE336FB0EE336FC0E31
:101D3800E336FD0EE336FE0EE306FE0EE350D8A4AE
:101D4800F1D7FA0EE3CF52F0FB0EE3CF53F0FC0EBF
:101D5800E3CF54F0FD0EE3CF55F0F40EE126FF0E6D
:101D6800E2221200060EE126000EE2220F0E5D6E40
:101D7800F70EE3CF58F0F80EE3CF59F0F90EE3CFA2
:101D88005AF05D28526E04D0D8905A3259325832DF
:101D9800522EFAD758505D6EFF0E5DC0E3FFFF0E5E
:101DA800E350D8B41DD00F0E5D6EF40EE3CF58F09B
:101DB800F50EE3CF59F0F60EE3CF5AF05D28526ED8
:101DC80004D0D8905A3259325832522EFAD7585035
:101DD8005D6EFD0E5DC0E3FFFD0EE350D8A407D095
:101DE800000E526E000E536E000E546EC3D07B0E62
:101DF8005D6EFD0EE3505D245C6EE150FF0FD96E01
:101E0800E250DA6EFF0EDA225C50DF26F90EE1248A
:101E1800D96EFF0EE220DA6EDF505D6EFD0E5DC0FA
:101E2800E3FFF60EE124D96EFF0EE220DA6EDF50F2
:101E38005D6EE150FD0FD96EE250DA6EFF0EDA22C8
:101E48005D50DF1AFD0EE3CF52F0800E5216FD0EE4
:101E580052C0E3FFF80EE38EF50EE38EF60EE36A4A
:101E6800FA0EE36AFB0EE36AFC0EE36A070E5D6E88
:101E7800FE0E5DC0E3FFF70EE3A01BD0FA0EE350A1
:101E8800526EF40EE3505226FA0E52C0E3FFFB0ED8
:101E9800E350526EF50EE3505222FB0E52C0E3FFA0
:101EA800FC0EE350526EF60EE3505222FC0E52C066
:101EB800E3FFD890F90EE332F80EE332F70EE3327F
:101EC800D890F40EE336F50EE336F60EE336FE0E42
:101ED800E350526E010E525EFE0E52C0E3FFD8A4CC
:101EE800CAD7FE0EE36AE380E386F70EE3A01BD0B1
:101EF800FA0EE350526EF40EE3505226FA0E52C018
:101F0800E3FFFB0EE350526EF50EE3505222FB0E38
:101F180052C0E3FFFC0EE350526EF60EE35052221D
:101F2800FC0E52C0E3FFD890F90EE332F80EE3320C
:101F3800F70EE332D890FC0EE332FB0EE332FA0ED2
:101F4800E332FE0EE350526E010E525EFE0E52C098
:101F5800E3FFD8A4CAD7FD0EE350E66EFE0EE350A9
:101F6800E66EF80EE3CFE6FFE3CFE6FFE3CFE6FF4A
:101F7800C1EC1CF0F40EE126FF0EE222120006006E
:101F8800E2CF2AF0D9CF2BF0DACF2CF0F6CF2DF014
:101F9800F7CF2EF0F8CF2FF0F5CF30F052C031F058
:101FA80053C032F054C033F012EE66F0000E356EB6
:101FB800000E346EF2B2F2A804D08184F29248EC9A
:101FC80021F0040E1A181B10D8A4A3D0000E356EE9
:101FD800000E346E81948B0EE66E780EE66E0BEC76
:101FE80021F0630EE66E7E0EE66E0BEC21F02D0EF0
:101FF800E66E7C0EE66E0BEC21F0E8EC22F01004A5
:102008001110D8B481A812D066EC1FF0ACA2FED78C
:102018001CC0ADFF1CC01DF0E8EC22F002D066EC3D
:102028001FF0440E1C18D8B46CD0F9D72BEC23F051
:1020380052501D6EACA2FED71DC0ADFF0D0EAE18DE
:10204800D8B45FD0FBD756EC23F0E00E456E7F0E78
:10205800466EF2880E0EE66E7F0EE66E0BEC21F0F1
:10206800450EE66E04C0E6FF05C0E6FFFDEC22F073
:10207800190EE66E790EE66E0BEC21F0E8EC22F014
:102088005CD0DE0E456E7F0E466E440EE66E04C0D2
:10209800E6FF05C0E6FFFDEC22F0F2989D0EE66E25
:1020A8007E0EE66E0BEC21F0190EE66E790EE66EEA
:1020B8000BEC21F0E8EC22F040D0AD0EE66E7F0E7E
:1020C800E66E0BEC21F03C0EE66E7C0EE66E0BEC39
:1020D80021F0DE0E456E7F0E466E450EE66E04C09C
:1020E800E6FF05C0E6FFFDEC22F056EC23F0F2888F
:1020F800190EE66E790EE66E0BEC21F0E8EC22F094
:102108001CD01D50300AD8B4BCD7010AD8B49BD70C
:10211800D4D7C80EE66E7A0EE66E0BEC21F0EC0E04
:10212800E66E7A0EE66E0BEC21F0000E356E010EAF
:10213800346EE8EC22F048EC21F034043510D8B4C1
:1021480040D733C054F032C053F031C052F030C0E1
:10215800F5FF2FC0F8FF2EC0F7FF2DC0F6FF2CC0EB
:10216800DAFF2BC0D9FF2AC0E2FF29C0E1FF28C04F
:10217800EAFF27C0E9FF1100060EE126000EE22261
:102188000F0E5D6EF70EE3CF58F0F80EE3CF59F05F
:10219800F90EE3CF5AF05D28526E04D0D8905A3227
:1021A80059325832522EFAD758505D6EFE0E5DC025
:1021B800E3FFFE0EE350D8A406D0000E526E536A19
:1021C800546A556AC5D00F0E5D6EF40EE3CF58F011
:1021D800F50EE3CF59F0F60EE3CF5AF05D28526EB4
:1021E80004D0D8905A3259325832522EFAD7585011
:1021F8005D6EFF0E5DC0E3FFFF0EE350D8B4DDD780
:10220800F80EE38EF90EE36AF50EE38EF60EE36A36
:10221800FA0EE36AFB0EE36AFC0EE36AFD0EE36A5C
:10222800FE0EE3CF52F07F0E525EFE0E52C0E3FF69
:10223800980E5D6EFF0EE3505D245C6EE150FE0F5C
:10224800D96EE250DA6EFF0EDA225C50DF5EFF0EC6
:10225800E36AE386E388D890FA0EE336FB0EE336AA
:10226800FC0EE336FD0EE336E150F70FD96EE2506F
:10227800DA6EFF0EDA22F40EE350DE5CF50EE35060
:10228800DE58F60EE350DE58D8A018D0F40EE3CF8F
:102298005BF0F50EE3CF5CF0F60EE3CF5DF0E150B6
:1022A800F70FD96EE250DA6EFF0EDA225B50DE5E6F
:1022B8005C50DE5A5D50DE5AFA0EE380D890F70E75
:1022C800E336F80EE336F90EE336FF0EE350526EAE
:1022D800010E525EFF0E52C0E3FFD8A4BCD7FE0E1B
:1022E800E3AE14D0FE0EE350800A970FD8A065D74E
:1022F800D890FD0EE332FC0EE332FB0EE332FA0E09
:10230800E332FE0EE32AD8B417D0F2D7FE0EE3CF9D
:1023180052F0170E52640CD050D7D890FA0EE3360C
:10232800FB0EE336FC0EE336FD0EE336FE0EE30647
:10233800FE0EE350D8A4F1D7FA0EE3CF52F0FB0E0D
:10234800E3CF53F0FC0EE3CF54F0FD0EE3CF55F08E
:10235800F40EE126FF0EE2221200EC0EE66E7A0E73
:10236800E66E0BEC21F00B0EE66E760EE66E0BECCD
:1023780021F0EC0EE66E7A0EE66E0BEC21F0CB0E39
:10238800E66E7D0EE66E0BEC21F0EC0EE66E7A0E34
:10239800E66E0BEC21F0EA0EE66E7D0EE66E0BECB7
:1023A80021F03D0EE66E7B0EE66E0BEC21F0EA0E98
:1023B800E66E780EE66E0BEC21F0EC0EE66E770E0C
:1023C800E66E0BEC21F0880EE66E760EE66E0BECF0
:1023D80021F03D0EE66E770EE66E0BEC21F0EC0E6A
:1023E800E66E7A0EE66E0BEC21F04E0EE66E7D0E72
:1023F800E66E0BEC21F0EC0EE66E7A0EE66E0BEC58
:1024080021F0D40EE66E7F0EE66E0BEC21F0E8ECC0
:1024180022F010041110D8B481A812D066EC1FF075
:10242800ACA2FED71CC0ADFF1CC01DF0E8EC22F02A
:1024380002D066EC1FF0440E1C18D8B45DD0F9D752
:102448002BEC23F052501D6EACA2FED71DC0ADFF81
:102458000D0EAE18D8B450D0FBD797EC12F012007E
:1024680091EC17F01200CFEC16F01200E70E436E55
:102478007F0E446E4B0EE66E030EE66E000EE66EA1
:10248800FDEC22F08198106A116A41EC23F065DFB7
:102498001200920E436E7F0E446E500EE66E030ECF
:1024A800E66E000EE66EFDEC22F08188000E116EDD
:1024B800010E106EEAD7990E436E7F0E446E420EDF
:1024C800E66E030EE66E000EE66EFDEC22F08188E5
:1024D800DAD741EC23F041DF1200EC0EE66E7A0EFB
:1024E800E66E0BEC21F0BB0EE66E780EE66E0BEC9A
:1024F80021F0E8EC22F0C9D71D50300AD8B4E9D74A
:10250800010AD8B4AAD7030AD8B4AAD7010AD8B4FA
:10251800AAD7070AD8B4AAD7010AD8B4BAD7030ADF
:10252800D8B4C9D7DAD741EC23F0EC0EE66E7A0EB0
:10253800E66E0BEC21F0C50EE66E760EE66E0BEC41
:1025480021F0EC0EE66E7A0EE66E0BEC21F02A0E08
:10255800E66E7F0EE66E0BEC21F0EC0EE66E7A0E60
:10256800E66E0BEC21F0270EE66E7E0EE66E0BECA7
:1025780021F0EC0EE66E7A0EE66E0BEC21F0D40E2E
:10258800E66E7F0EE66E0BEC21F0E8EC22F010040C
:102598001110D8B481A812D066EC1FF0ACA2FED7F7
:1025A8001CC0ADFF1CC01DF0E8EC22F002D066ECA8
:1025B8001FF0440E1C18D8B492D0F9D72BEC23F096
:1025C80052501D6EACA2FED71DC0ADFF0D0EAE1849
:1025D800D8B485D0FBD741EC23F0B1EC11F0120050
:1025E80041EC23F0C50EE66E760EE66E0BEC21F09C
:1025F800010EE66E770EE66E0BEC21F0EC0EE66E41
:102608007A0EE66E0BEC21F0EC0EE66E7A0EE66EB4
:102618000BEC21F0BA0EE66E7E0EE66E0BEC21F0A6
:10262800E8EC22F08EEC1BF052C016F053C017F005
:1026380084EC21F018D06E0EE66E7D0EE66E0BEC83
:1026480021F0E8EC22F0BA0EE66E7E0EE66E0BEC98
:1026580021F0E8EC22F08EEC1BF052C016F053C0CB
:1026680017F084EC21F0040E1A181B10D8A4E3D735
:10267800040E1A181B10D8A41200440EE66E7F0E22
:10268800E66E0BEC21F0E8EC22F0B1EC19F03DC05D
:102698000CF03EC00DF0EC0EE66E7A0EE66E0BEC1A
:1026A80021F0760EE66E7A0EE66E0BEC21F041EC28
:1026B80023F0B1EC11F01200EC0EE66E7A0EE66E25
:1026C8000BEC21F04C0EE66E7A0EE66E0BEC21F068
:1026D800E8EC22F041EC23F0B1EC11F012001D50AF
:1026E800300AD8B478D7010AD8B47AD7E5D7060E15
:1026F800E126000EE2220F0E5D6EF70EE3CF58F0D2
:10270800F80EE3CF59F0F90EE3CF5AF05D28526E78
:1027180004D0D8905A3259325832522EFAD75850DB
:102728005D6EFE0E5DC0E3FFFE0EE350D8B41DD013
:102738000F0E5D6EF40EE3CF58F0F50EE3CF59F0AF
:10274800F60EE3CF5AF05D28526E04D0D8905A3274
:1027580059325832522EFAD758505D6EFD0E5DC070
:10276800E3FFFD0EE350D8A407D0000E526E000E12
:10277800536E000E546E96D0FA0EE36AFB0EE36AAF
:10278800FC0EE36A890E5D6EFD0EE3505D245C6EFF
:10279800E150FE0FD96EE250DA6EFF0EDA225C507D
:1027A800DF5EF90EE124D96EFF0EE220DA6EDF500B
:1027B8005D6EFD0E5DC0E3FFF60EE124D96EFF0EDF
:1027C800E220DA6EDF505D6EE150FD0FD96EE25007
:1027D800DA6EFF0EDA225D50DF1AFD0EE3CF52F0FB
:1027E800800E5216FD0E52C0E3FFF80EE38EF90E6E
:1027F800E36AF50EE38EF60EE36AFF0EE36AE386FC
:10280800E388D890FA0EE336FB0EE336FC0EE33687
:10281800E150F70FD96EE250DA6EFF0EDA22F40EAD
:10282800E350DE5CF50EE350DE58F60EE350DE585A
:10283800D8A018D0F40EE3CF5BF0F50EE3CF5CF030
:10284800F60EE3CF5DF0E150F70FD96EE250DA6E85
:10285800FF0EDA225B50DE5E5C50DE5A5D50DE5AB7
:10286800FA0EE380D890F70EE336F80EE336F90E49
:10287800E336FF0EE350526E010E525EFF0E52C059
:10288800E3FFD8A4BED7FD0EE350E66EFD0EE3507D
:10289800E66EF80EE3CFE6FFE3CFE6FFE3CFE6FF11
:1028A800C1EC1CF0F40EE126FF0EE2221200FF0E2E
:1028B800E3CF52F06D0E52646FD0000EE66E000E3C
:1028C800E66E3F0EE66E0A0EE66EFB0EE350E66E0F
:1028D80001EC20F05250030D3B0EF324F66E730EFC
:1028E800F420F76E0900F5CFE6FF0900F5CFE6FF03
:1028F8000900F5CFE6FF0A0EE66E640EE66EF70EE7
:10290800E350E66E01EC20F05250E66EB9EC1EF092
:102918005250030D1B0EF326000EF4223B0EF32437
:10292800F66E730EF420F76E0900F5CFE6FF090086
:10293800F5CFE6FF0900F5CFE6FF640EE66EF50E6B
:10294800E350E66EB9EC1EF05250030D360EF32636
:10295800000EF4223B0EF324F66E730EF420F76E8D
:102968000900F5CFE6FF0900F5CFE6FF0900F5CF2E
:10297800E6FFB6EC0EF052C0E6FF53C0E6FF54C0C7
:10298800E6FFB6EC0EF052C0E6FF53C0E6FF54C0B7
:10299800E6FFB6EC0EF065D0FF0EE3CF52F00A0E5C
:1029A800526445D0000EE66E000EE66E3F0EE66EEF
:1029B8000A0EE66EFB0EE350E66E01EC20F0525074
:1029C800030D3B0EF324F66E730EF420F76E090028
:1029D800F5CFE6FF0900F5CFE6FF0900F5CFE6FFE2
:1029E8000A0EE66EF80EE350E66EB9EC1EF0525091
:1029F800030D1B0EF326000EF4223B0EF324F66E95
:102A0800730EF420F76E0900F5CFE6FF0900F5CF45
:102A1800E6FF0900F5CFE6FFB6EC0EF052C0E6FF80
:102A280053C0E6FF54C0E6FFB6EC0EF01AD0000E15
:102A3800E66E000EE66E3F0EE66EFC0EE350030DEA
:102A48003B0EF324F66E730EF420F76E0900F5CFF3
:102A5800E6FF0900F5CFE6FF0900F5CFE6FFB6EC83
:102A68000EF0E5521200E652E652E652010EC26E30
:102A78000E0EC16EAC0EC06E9280C282C2B2FED77C
:102A8800C4CF14F0156A1450156E146AC350142676
:102A9800000E152214C0E6FF15C0E6FFB5EC22F0C3
:102AA80052C001F053C002F054C003F0400EE66E6D
:102AB8009C0EE66E450EE66EC00EE66E7F0EE66E66
:102AC800440EE66E01C0E6FF02C0E6FF03C0E6FF63
:102AD8007BEC13F052C0E6FF53C0E6FF54C0E6FF9C
:102AE800B6EC0EF052C001F053C002F054C003F02F
:102AF800000EE66EFA0EE66EC30EE66E01C0E6FF45
:102B080002C0E6FF03C0E6FF00EC0CF052C001F083
:102B180053C002F054C003F0000EE66E200EE66EBD
:102B2800410EE66E01C0E6FF02C0E6FF03C0E6FF05
:102B38007BEC13F052C001F053C002F054C003F014
:102B4800000EE66E000EE66E420EE66E660EE66E4D
:102B5800E60EE66E3F0EE66E01C0E6FF02C0E6FF37
:102B680003C0E6FFB6EC0EF052C0E6FF53C0E6FF26
:102B780054C0E6FF00EC0CF052C001F053C002F064
:102B880054C003F001C0E6FF02C0E6FF03C0E6FF41
:102B9800F00EE66E7F0EE66EF80EE124E66EFF0E8E
:102BA800E220E66E070EE66EC7EC01F00A6A0B6AD1
:102BB8000BBE06D00B501FE1050E0A5CD8B01BD027
:102BC800FD0EE124536EFF0EE220546E0A5053248A
:102BD800D96E0B505420DA6E0AC053F00BC054F073
:102BE8001E0E5324E96E000E5420EA6EDFCFEFFF6D
:102BF8000A4A0B2ADDD7236AE552E552E55212004C
:102C080004C0E6FF05C0E6FF36EC23F05228D8B42E
:102C180021D004C0E6FF05C0E6FF36EC23F0450EE0
:102C28005218D8A408D0E00E456E7F0E466E56ECBA
:102C380023F0F2880FD004C0E6FF05C0E6FF36ECAB
:102C480023F0440E5218D8A405D0DE0E456E7F0E30
:102C5800466EF29849C0E6FF4AC0E6FF36EC23F01C
:102C68005228D8B423D049C0E6FF4AC0E6FF36EC64
:102C780023F0450E5218D8A408D0E00E476E7F0EF8
:102C8800486E69EC23F0D58E11D049C0E6FF4AC0E2
:102C9800E6FF36EC23F0440E5218D8A407D0DE0E17
:102CA800476E7F0E486ED59E9D9C819A41C0E6FF77
:102CB80042C0E6FF36EC23F05228D8B435D041C0E4
:102CC800E6FF42C0E6FF36EC23F0500E5218D8A4B7
:102CD80009D08188000E116E010E106E920E436E9F
:102CE8007F0E21D041C0E6FF42C0E6FF36EC23F05C
:102CF8004B0E5218D8A405D08198E70E436E7F0E6C
:102D080012D041C0E6FF42C0E6FF36EC23F0420E87
:102D18005218D8A409D08188000E116E000E106ECA
:102D2800850E436E7F0E446E4BC0E6FF4CC0E6FF37
:102D380036EC23F05228D8B41200000E0B6E000EA9
:102D48000A6E000E076E100E066E12D0240E0A24AC
:102D5800D96E000E0B20DA6E06C0E6FF07C0E6FF4C
:102D680036EC23F05250DF6E064A072A0A4A0B2A2D
:102D78000BBEECD70B5004E1040E0A5CD8A0E6D7D2
:102D8800240EE66E000EE66E53EC1AF052C04DF0BB
:102D980053C04EF0120041EC23F0110EE66E740E93
:102DA800E66E0BEC21F0EC0EE66E7A0EE66E0BEC9E
:102DB80021F0F20EE66E7E0EE66E0BEC21F0EC0EC4
:102DC800E66E7A0EE66E0BEC21F0F70EE66E790EE3
:102DD800E66E0BEC21F0600EE66E7C0EE66E0BECF8
:102DE80021F0460EE66E790EE66E0BEC21F0EC0E45
:102DF800E66E7A0EE66E0BEC21F0450EE66E7E0E60
:102E0800E66E0BEC21F0EC0EE66E7A0EE66E0BEC3D
:102E180021F02D0EE66E7C0EE66E0BEC21F0E8EC50
:102E280022F010041110D8B481A812D066EC1FF05B
:102E3800ACA2FED71CC0ADFF1CC01DF0E8EC22F010
:102E480002D066EC1FF0440E1C18D8B453D0F9D742
:102E58002BEC23F052501D6EACA2FED71DC0ADFF67
:102E68000D0EAE18D8B446D0FBD7E00E476E7F0ED5
:102E7800486E450EE66E49C0E6FF4AC0E6FFFDEC27
:102E880022F0D58E9D8CEF0EE66E7A0EE66E0BEC78
:102E980021F0E8EC22F03CD0DE0E476E7F0E486E43
:102EA800440EE66E49C0E6FF4AC0E6FFFDEC22F09C
:102EB800D59E9D9C819AA00EE66E7A0EE66E0BEC6E
:102EC80021F0E8EC22F024D00AEC19F021D0EC0E25
:102ED800E66E7A0EE66E0BEC21F0D60EE66E7E0EEE
:102EE800E66E0BEC21F0E8EC22F041EC23F0B1ECBB
:102EF80011F00ED01D50300AD8B40AD0010AD8B447
:102F0800B4D7030AD8B4C8D7010AD8B4DDD7DFD7F5
:102F180041EC23F0B1EC11F0120041EC23F0510E1A
:102F2800E66E740EE66E0BEC21F0EC0EE66E7A0E91
:102F3800E66E0BEC21F0800EE66E7E0EE66E0BEC74
:102F480021F0EC0EE66E7A0EE66E0BEC21F0840EA4
:102F5800E66E7C0EE66E0BEC21F0A70EE66E7C0E9C
:102F6800E66E0BEC21F0EC0EE66E7A0EE66E0BECDC
:102F780021F0450EE66E7E0EE66E0BEC21F0EC0EAF
:102F8800E66E7A0EE66E0BEC21F02D0EE66E7C0EE8
:102F9800E66E0BEC21F0E8EC22F010041110D8B426
:102FA80081A812D066EC1FF0ACA2FED71CC0ADFF02
:102FB8001CC01DF0E8EC22F002D066EC1FF0440EB5
:102FC8001C18D8B45DD0F9D72BEC23F052501D6EE5
:102FD800ACA2FED71DC0ADFF0D0EAE18D8B450D0B0
:102FE800FBD7450EE66E04C0E6FF05C0E6FFFDEC24
:102FF80022F0E00E456E7F0E466E56EC23F0F28806
:10300800AC0EE66E7D0EE66E0BEC21F0E8EC22F0DD
:1030180041EC23F0B1EC11F01200440EE66E04C04E
:10302800E6FF05C0E6FFFDEC22F0DE0E456E7F0EE2
:10303800466EF29881962E0EE66E7D0EE66E0BECCD
:1030480021F0E8EC22F041EC23F0B1EC11F0120091
:1030580041EC23F0B1EC11F01200EC0EE66E7A0EA2
:10306800E66E0BEC21F0D60EE66E7E0EE66E0BECED
:1030780021F0E8EC22F041EC23F0B1EC11F0120061
:103088001D50300AD8B4E4D7010AD8B4AAD7030A25
:10309800D8B4C3D7E2D7060EE126000EE2220F0EFF
:1030A8005D6EF70EE3CF58F0F80EE3CF59F0F90E46
:1030B800E3CF5AF05D28526E04D0D8905A32593274
:1030C8005832522EFAD758505D6EFE0E5DC0E3FF9F
:1030D800FE0EE350D8A406D0000E526E536A546A0E
:1030E800556A8FD0170E5D6EF70EE3CF58F0F80EC5
:1030F800E3CF59F0F90EE3CF5AF05D28526E04D0B1
:10310800D8905A3259325832522EFAD758505D6EEA
:10311800FF0E5DC0E3FFF80EE38EF90EE36AF70ECB
:10312800E3CF5BF0F80EE3CF5CF0F90EE3CF5DF090
:103138005B50566E5C50576E5D50586E596AFA0E69
:1031480056C0E3FFFB0E57C0E3FFFC0E58C0E3FF79
:10315800FD0E59C0E3FFFE0EE3CF52F08E0E525E15
:10316800FE0E52C0E3FFFE0EE3AE14D0FE0EE35097
:10317800800A8F0FD8A0B0D7D890FD0EE332FC0E8E
:10318800E332FB0EE332FA0EE332FE0EE32AD8B442
:1031980017D0F2D7FE0EE3CF52F0170E52640CD0C0
:1031A8009BD7D890FA0EE336FB0EE336FC0EE336D7
:1031B800FD0EE336FE0EE306FE0EE350D8A4F1D76B
:1031C800FF0EE350D8B411D0FA0EE36CFB0EE31EE9
:1031D800FC0EE31EFD0EE31E08E3FB0EE32A05E3E7
:1031E800FC0EE32A02E3FD0EE32AFA0EE3CF52F0C7
:1031F800FB0EE3CF53F0FC0EE3CF54F0FD0EE3CF0C
:1032080055F0F70EE126FF0EE2221200890EE66E57
:10321800730EE66E0BEC21F0E8EC22F0000E4C6E1B
:10322800100E4B6E10041110D8B481A83CD00A6A55
:103238000B6A0BBE06D00B5031E1020E0A5CD8B007
:103248002DD066EC1FF00AC053F00BC054F0240ECA
:103258005324D96E000E5420DA6E1CC0DFFF0AC05A
:1032680053F00BC054F0240E5324D96E000E542092
:10327800DA6EDF50E66E4BC0E6FF4CC0E6FFFDECB1
:1032880022F0ACA2FED71CC0ADFF4B4A4C2AE8EC9A
:1032980022F00A4A0B2ACDD766EC1FF0440E1C1800
:1032A800D8B442D0F9D70A6A0B6A0BBE06D00B50C5
:1032B80037E1020E0A5CD8B033D00AC053F00BC015
:1032C80054F0240E5324D96E000E5420DA6E2BECE1
:1032D80023F05250DF6E0AC053F00BC054F0240E96
:1032E8005324D96E000E5420DA6EDF50E66E4BC0C0
:1032F800E6FF4CC0E6FFFDEC22F0ACA2FED70AC008
:1033080053F00BC054F0240E5324D96E000E5420F1
:10331800DA6EDF50AD6E4B4A4C2A0A4A0B2AC5D7E3
:103328000D0EAE18D8A4FCD7240EE66E000EE66E7D
:1033380053EC1AF052C04DF053C04EF0EC0EE66E4E
:103348007A0EE66E0BEC21F0B40EE66E770EE66EA2
:103358000BEC21F0E8EC22F01200000E076EE00EF4
:10336800066E10041110D8B481A843D0000E406E28
:10337800000E3F6E40BE06D0405036E1040E3F5C62
:10338800D8B032D066EC1FF03F500C24D96E4050B4
:103398000D20DA6E1CC0DFFFA6B2FED706C0A9FF5B
:1033A8003F500C24D96E40500D20DA6EDF50A86EC5
:1033B800D890F2BED880F29EA684550EA76EAA0EAB
:1033C800A76EA682A694D8B0F28EE8EC22F00D0E75
:1033D800E66E750EE66E0BEC21F0064A072A3F4AA8
:1033E800402AC8D766EC1FF0440E1C18D8B43FD04A
:1033F800F9D7000E406E000E3F6E40BE06D040501A
:1034080032E1040E3F5CD8B02ED03F500C24D96E68
:1034180040500D20DA6E2BEC23F05250DF6EA6B22E
:10342800FED706C0A9FF3F500C24D96E40500D208E
:10343800DA6EDF50A86ED890F2BED880F29EA684CD
:10344800550EA76EAA0EA76EA682A694D8B0F28EC5
:103458000D0EE66E750EE66E0BEC21F0064A072A95
:103468003F4A402ACAD70D0EAE18D8A4FCD7A6B238
:10347800FED7050EA96E680EA86ED890F2BED88049
:10348800F29EA684550EA76EAA0EA76EA682A694D3
:10349800D8B0F28E0CC03DF00DC03EF01200E652DE
:1034A800E652E6520FD0FB0EE350010F526EFB0EB0
:1034B80052C0E3FF526AFC0EE3505220526EFC0EDB
:1034C80052C0E3FFFB0EE3CFD9FFFC0EE3CFDAFFD8
:1034D800DF50200AD8B4E7D7FB0EE3CFD9FFFC0EA4
:1034E800E3CFDAFFDF50090AD8B4DDD7FD0EE36A6F
:1034F800FE0EE36AFF0EE36AFB0EE3CFD9FFFC0E74
:10350800E3CFDAFFDF502D0AD8A412D0FF0EE32A4A
:10351800FB0EE350010F526EFB0E52C0E3FF526ADE
:10352800FC0EE3505220526EFC0E52C0E3FF2FD027
:10353800FB0EE3CFD9FFFC0EE3CFDAFFDF502B0AF7
:10354800D8B4E6D724D00A0EE66E000EE66EFB0E5F
:10355800E3CFE6FFE3CFE6FFB6EC1FF0FB0EE3CFC9
:10356800D9FFFC0EE3CFDAFFDF505226000E5322BC
:10357800D00E5C6EFF0E5D6E5C5052265D5053227D
:10358800FD0E52C0E3FFFE0E53C0E3FFC1D7FB0E92
:10359800E3CFD9FFFC0EE3CFDAFFDF50E66E7EEC17
:1035A80022F052B0D0D7FF0EE350D8B40CD0FD0EA5
:1035B800E3CF52F0521EFE0EE3CF53F0531E522AB1
:1035C800D8B4532A06D0FD0EE3CF52F0FE0EE3CF57
:1035D80053F0FB0EE126FF0EE2221200EC0EE66E1F
:1035E8007A0EE66E0BEC21F0700EE66E7F0EE66E3C
:1035F8000BEC21F0CC0EE66E750EE66E0BEC21F0AE
:10360800880EE66E7B0EE66E0BEC21F045C0E6FFF9
:1036180046C0E6FF0BEC21F0AC0EE66E7B0EE66EC4
:103628000BEC21F047C0E6FF48C0E6FF0BEC21F0A9
:10363800F40EE66E7B0EE66E0BEC21F01E0EE66EC7
:10364800000EE66E0BEC21F04F0EE66E000EE66EF5
:103658000BEC21F0D00EE66E7B0EE66E0BEC21F043
:103668004DC0E6FF4EC0E6FFFB0EE66E7F0EE66E2F
:103678003D0EE66E000EE66E060EE66EC7EC01F035
:10368800000E0B6E000E0A6E0BBE06D00B5015E135
:10369800020E0A5CD8B011D03D0E0A24D96E000E75
:1036A8000B20DA6E240E0A24E96E000E0B20EA6E57
:1036B800DFCFEFFF0A4A0B2AE7D7000E266E240E4B
:1036C800E66E000EE66E0BEC21F04F0EE66E000E75
:1036D800E66E0BEC21F0640EE66E7B0EE66E0BECEC
:1036E80021F043C0E6FF44C0E6FF0BEC21F0EC0EEE
:1036F800E66E7A0EE66E0BEC21F0CC0EE66E750ED9
:10370800E66E0BEC21F0EC0EE66E7A0EE66E0BEC34
:1037180021F01200060EE126000EE222100411101C
:10372800D8B481A846D0FE0EE36AFF0EE36A66ECC1
:103738001FF0FE0EE3CF53F0FF0EE3CF54F0FA0E66
:10374800E1245C6EFF0EE2205D6E53505C24D96E5E
:1037580054505D20DA6E1CC0DFFFE8EC22F00D0E3D
:10376800E66E750EE66E0BEC21F0FE0EE350010FCF
:10377800526EFE0E52C0E3FF526AFF0EE350522013
:10378800526EFF0E52C0E3FFFF0EE3BED0D7FF0E0E
:10379800E3500AE1FE0EE3CF52F0040E525ED8B0B9
:1037A80003D0C5D766EC1FF0440E1C18D8B441D01E
:1037B800F9D7FE0EE36AFF0EE36AFE0EE3CF53F07D
:1037C800FF0EE3CF54F0FA0EE1245C6EFF0EE22008
:1037D8005D6E53505C24D96E54505D20DA6E2BEC2C
:1037E80023F05250DF6E0D0EE66E750EE66E0BEC92
:1037F80021F0FE0EE350010F526EFE0E52C0E3FFA1
:10380800526AFF0EE3505220526EFF0E52C0E3FF81
:10381800FF0EE3BED2D7FF0EE35007E1FE0EE3CF63
:1038280052F0040E525ED8A0C8D70D0EAE18D8A418
:10383800FCD7FA0EE124526EFF0EE220536EFA0E08
:10384800E126FF0EE2221200E652E652E652E65266
:10385800FE0EE36AF90EE3AE09D0F80EE36CF90E3A
:10386800E31ED8B0E32AFE0EE36AE32AFB0EE3AEBA
:1038780008D0FA0EE36CFB0EE31ED8B0E32AFE0E66
:10388800E370FC0EE36AFD0EE36AF80EE3CF52F034
:10389800F90EE3505210D8B45BD0FF0EE36A10D093
:1038A800F80EE350D890E834526EF80E52C0E3FF99
:1038B800F90EE350E834526EF90E52C0E3FFFF0EE2
:1038C800E32AF90EE3AEECD7FC0EE350D890E834C7
:1038D800526EFC0E52C0E3FFFD0EE350E834526E08
:1038E800FD0E52C0E3FFF80EE3CF53F0F90EE3CF1D
:1038F80054F0FA0EE3CF5CF0FB0EE3CF5DF05350CB
:103908005C5C54505D58D8A014D0FA0EE350526E47
:10391800F80EE350525EFA0E52C0E3FFFB0EE3507E
:10392800526EF90EE350525AFB0E52C0E3FFFC0EE2
:10393800E380D890F90EE332F80EE332FF0EE3503D
:10394800526E010E525EFF0E52C0E3FFD8A4BCD7E0
:10395800FE0EE350D8B406D0FC0EE36CFD0EE31E59
:10396800D8B0E32AFC0EE3CF52F0FD0EE3CF53F0BC
:10397800F80EE126FF0EE2221200FC0EE350D8B446
:103988000AD0FD0EE35017E1FE0EE35014E1FF0EDE
:10399800E350D8A410D0000E526E000E536E000EE5
:1039A800546E72D0FC0EE32AD890FF0EE332FE0E5E
:1039B800E332FD0EE3325B6A5C6AFF0EE3CF5DF033
:1039C800FE0E5D16D8B415D0EDD7FC0EE32AE150F3
:1039D800FD0FD96EE250DA6EFF0EDA22DE2A000EF3
:1039E800DE22DE22D890FF0EE332FE0EE332FD0E19
:1039F800E3325B6A5C6AFF0EE3CF5DF0FF0E5D1693
:103A0800D8B40AD0E2D7FC0EE306D890FD0EE33610
:103A1800FE0EE336FF0EE336FE0EE3BE06D0FC0EC6
:103A2800E3CF52F0020E5260EED7FC0EE3B002D0A4
:103A3800FE0EE39EE150FC0FD96EE250DA6EFF0EE7
:103A4800DA22D890DF32FC0EE3505D6E5C6A5B6A66
:103A5800E150FD0FD96EE250DA6EFF0EDA225B50AC
:103A6800DE125C50DE125D50DE12FB0EE350D8B45D
:103A780002D0FF0EE38EFD0EE3CF52F0FE0EE3CF31
:103A880053F0FF0EE3CF54F0FB0EE126FF0EE222C7
:103A98001200050EE126000EE222FB0EE36AFC0E80
:103AA800E36AFD0EE36AFE0EE36AF30EE3500AE1F1
:103AB800F40EE35007E1F50EE35004E1F60EE3508F
:103AC800D8B457D0FF0EE36A0AD0D890F30EE33685
:103AD800F40EE336F50EE336F60EE336FF0EE32A70
:103AE800F60EE3AEF2D7D890FB0EE336FC0EE336C3
:103AF800FD0EE336FE0EE336E150F70FD96EE250C5
:103B0800DA6EFF0EDA22F30EE350DE5CF40EE350B9
:103B1800DE58F50EE350DE58F60EE350DE58D8A016
:103B280015D0E150F70FD96EE250DA6EFF0EDA22A7
:103B3800F30EE350DE5EF40EE350DE5AF50EE3506A
:103B4800DE5AF60EE350DE5AFB0EE380D890F60EEE
:103B5800E332F50EE332F40EE332F30EE332FF0EF6
:103B6800E350526E010E525EFF0E52C0E3FFD8A41E
:103B7800BAD7FB0EE3CF52F0FC0EE3CF53F0FD0EA5
:103B8800E3CF54F0FE0EE3CF55F0F30EE126FF0E1F
:103B9800E2221200E652E652FE0EE36AFD0EE3AEA2
:103BA80009D0FC0EE36CFD0EE31ED8B0E32AFE0E2E
:103BB800E36AE32AFB0EE3AE06D0FA0EE36CFB0ED3
:103BC800E31ED8B0E32AFA0EE3CF52F0FB0EE3501F
:103BD8005210D8B44AD0FF0EE36A10D0FA0EE35060
:103BE800D890E834526EFA0E52C0E3FFFB0EE35051
:103BF800E834526EFB0E52C0E3FFFF0EE32AFB0EC1
:103C0800E3AEECD7FA0EE3CF53F0FB0EE3CF54F05C
:103C1800FC0EE3CF5CF0FD0EE3CF5DF053505C5C2F
:103C280054505D58D8A012D0FC0EE350526EFA0ED4
:103C3800E350525EFC0E52C0E3FFFD0EE350526E9D
:103C4800FB0EE350525AFD0E52C0E3FFD890FB0E14
:103C5800E332FA0EE332FF0EE350526E010E525E6B
:103C6800FF0E52C0E3FFD8A4CDD7FE0EE350D8B460
:103C780006D0FC0EE36CFD0EE31ED8B0E32AFC0E62
:103C8800E3CF52F0FD0EE3CF53F0FA0EE126FF0E1C
:103C9800E2221200E652F70EE3500AE1F80EE35072
:103CA80007E1F90EE35004E1FA0EE350D8B44CD022
:103CB800FF0EE36A0AD0D890F70EE336F80EE33623
:103CC800F90EE336FA0EE336FF0EE32AFA0EE3AEF8
:103CD800F2D7E150FB0FD96EE250DA6EFF0EDA220E
:103CE800F70EE350DE5CF80EE350DE58F90EE350B1
:103CF800DE58FA0EE350DE58D8A013D0E150FB0F7F
:103D0800D96EE250DA6EFF0EDA22F70EE350DE5E6D
:103D1800F80EE350DE5AF90EE350DE5AFA0EE3507D
:103D2800DE5AD890FA0EE332F90EE332F80EE33297
:103D3800F70EE332FF0EE350526E010E525EFF0E95
:103D480052C0E3FFD8A4C5D7FB0EE3CF52F0FC0E58
:103D5800E3CF53F0FD0EE3CF54F0FE0EE3CF55F062
:103D6800F70EE126FF0EE2221200E652E652FE0EA0
:103D7800E36AFC0EE350D8B447D0FF0EE36A0AD0DA
:103D8800E150FC0FD96EE250DA6EFF0EDA22D890BD
:103D9800DF36FF0EE32AFC0EE3AEF2D7E150FE0F4A
:103DA800D96EE250DA6EFF0EDA22D890DF36E15093
:103DB800FD0FD96EE250DA6EFF0EDA22FC0EE350E8
:103DC800DE5CD8A00ED0FC0EE3CF5DF0E150FD0F15
:103DD800D96EE250DA6EFF0EDA225D50DF5EFE0E1B
:103DE800E380E150FC0FD96EE250DA6EFF0EDA2262
:103DF800D890DF32FF0EE350526E010E525EFF0E76
:103E080052C0E3FFD8A4CAD7FE0EE3CF52F0E55262
:103E1800E552E552E5521200FF0EE3AE19D0800ECE
:103E28005D6E5C6A5B6AFD0EE3505B5C586EFE0E6D
:103E3800E3505C58596EFF0EE3505D585A6EFD0E04
:103E480058C0E3FFFE0E59C0E3FFFF0E5AC0E3FF60
:103E5800FC0EE3AE19D0800E5D6E5C6A5B6AFA0EEA
:103E6800E3505B5C586EFB0EE3505C58596EFC0ED9
:103E7800E3505D585A6EFA0E58C0E3FFFB0E59C066
:103E8800E3FFFC0E5AC0E3FFFF0EE37EFC0EE37E69
:103E9800E150FD0FD96EE250DA6EFF0EDA22FA0E0B
:103EA800E350DE5CFB0EE350DE58FC0EE350DE58B8
:103EB800D8B002D0529001D05280FA0EE126FF0EFF
:103EC800E2221200F00E956E010E836E83A802D0D6
:103ED800310E41D083AA02D0320E3DD083AC02D03D
:103EE800330E39D083AE02D0410E35D0020E836E28
:103EF80083A802D0340E2FD083AA02D0350E2BD03F
:103F080083AC02D0360E27D083AE02D0420E23D027
:103F1800040E836E83A802D0370E1DD083AA02D068
:103F2800380E19D083AC02D0390E15D083AE02D02A
:103F3800430E11D0080E836E83A802D02A0E0BD030
:103F480083AA02D0300E07D083AC02D0230E03D050
:103F580083AEBAD7440E1C6E81B802D08188120095
:103F680081981200E652E652FA0EE3CF5DF0FC0E9D
:103F7800E3505D02FE0EF3CFE3FFFF0EF4CFE3FF45
:103F8800FB0EE124D96EFF0EE220DA6EDF505D6E83
:103F9800FC0EE3505D02F3CFF4FFF36AE150FE0F2D
:103FA800D96EE250DA6EFF0EDA22F350DE26F450B4
:103FB800DD22FA0EE3CF5DF0FD0EE124D96EFF0E8F
:103FC800E220DA6EDF505D02F3CFF4FFF36AE150CE
:103FD800FE0FD96EE250DA6EFF0EDA22F350DE26BB
:103FE800F450DD22FE0EE3CF52F0FF0EE3CF53F084
:103FF800FA0EE126FF0EE2221200E652E652FF0E0A
:10400800E36AE386FE0EE36AFD0EE3CF5DF0FE0E83
:10401800E3CF5CF0D8905D345C345D6EFE0E5DC01D
:10402800E3FFE150FD0FD96EE250DA6EFF0EDA229F
:10403800D890DF36E150FE0FD96EE250DA6EFF0EEF
:10404800DA22FC0EE350DE5CD8A00CD0FC0EE3CFE5
:104058005DF0E150FE0FD96EE250DA6EFF0EDA2203
:104068005D50DF5EFF0EE350526E010E525EFF0E92
:1040780052C0E3FFD8A4C8D7FE0EE3CF52F0E552F2
:10408800E552E552E5521200CC0EE66E750EE66E6C
:104098000BEC21F04E0EE66E750EE66E0BEC21F081
:1040A8000F0EE66E750EE66E0BEC21F08D0EE66EC9
:1040B800750EE66E0BEC21F0D00EE66E740EE66E11
:1040C8000BEC21F0CC0EE66E750EE66E0BEC21F0D3
:1040D8000A6A0B6A000E076EE00E066E12D00A50CE
:1040E8000C24D96E0B500D20DA6E06C0E6FF07C00F
:1040F800E6FF36EC23F05250DF6E064A072A0A4ADA
:104108000B2A0BBEECD70B5004E1040E0A5CD8A0B6
:10411800E6D7120011EC23F056EC23F020EC23F044
:1041280069EC23F04CEC23F037EC15F0000E0B6E25
:10413800000E0A6E000E076EE00E066E12D00A50D0
:104148000C24D96E0B500D20DA6E06C0E6FF07C0AE
:10415800E6FF36EC23F05250DF6E064A072A0A4A79
:104168000B2A0BBEECD70B5004E1040E0A5CD8A056
:10417800E6D748EC20F0E00EE66E000EE66E36EC70
:1041880023F05228D8A403D0CEEC20F0F4D7EEECDC
:1041980021F0F1D7EC0EE66E7A0EE66E0BEC21F00C
:1041A800090EE66E7E0EE66E0BEC21F0790EE66ED9
:1041B800770EE66E0BEC21F0CA0EE66E7C0EE66E0C
:1041C8000BEC21F0E8EC22F0B1EC19F03D500CC0FA
:1041D800D9FF0DC0DAFFDF6E0D0EAE18D8A4FCD7DC
:1041E800CB0EE66E790EE66E0BEC21F0E8EC22F0D1
:1041F80048EC20F0EEEC21F041EC23F0B1EC11F0AA
:10420800F2EC1AF0000E116E000E106E120025D09E
:10421800ACA2FED7FE0EE3CFF6FFFF0EE3CFF7FF0B
:10422800050EF76403D00800F55005D0F6CFE9FF76
:10423800F7CFEAFFEF50AD6EACB2FED7FE0EE350FB
:10424800010F526EFE0E52C0E3FF526AFF0EE3509A
:104258005220526EFF0E52C0E3FFFE0EE3CFF6FF70
:10426800FF0EE3CFF7FF050EF76403D00800F55003
:1042780005D0F6CFE9FFF7CFEAFFEF500009D8A441
:10428800C7D7E552E552120048EC20F04A0EE66E18
:10429800760EE66E0BEC21F0220EE66E7A0EE66ED6
:1042A8000BEC21F0E8EC22F0000E0B6E000E0A6E0B
:1042B800000E076EE00E066E12D00A500C24D96E5E
:1042C8000B500D20DA6E06C0E6FF07C0E6FF36EC9D
:1042D80023F05250DF6E064A072A0A4A0B2A0BBE01
:1042E800ECD70B5004E1040E0A5CD8A0E6D78EEC9C
:1042F8001BF052C016F053C017F084EC21F01200E6
:104308001A6A1B6A0A6A0B6A000E076EE00E066ECE
:1043180016D00A501624D96E0B501720DA6E0A50A0
:104328000C24E96E0B500D20EA6EDE50EE18D8A46E
:1043380002D01A4A1B2A064A072A0A4A0B2A0BBE27
:10434800E8D70B5004E1040E0A5CD8A0E2D7E00ECF
:1043580047180CE17F0E4818D8A412001A501B10F9
:10436800D8A41200000E1B6E040E1A6E1200E6523C
:104378008E0E5D6EFF0E5DC0E3FF0BD0D890FE0E73
:10438800E332FD0EE332FC0EE332FB0EE332FF0EA6
:10439800E32AE150FB0FD96EE250DA6EFF0EDA2203
:1043A800DE52DE52DE52FF0EDD14D8A4E7D7000E2F
:1043B800E66EFE0EE350E66EF90EE3CFE6FFE3CFBE
:1043C800E6FFE3CFE6FFC1EC1CF0FB0EE126FF0E93
:1043D800E22212000E0EE66E7D0EE66E0BEC21F068
:1043E800E8EC22F08EEC1BF052C016F053C017F028
:1043F80084EC21F0040E1A181B10D8A408D004EC81
:1044080016F0818641EC23F0B1EC11F01200730E26
:10441800E66E790EE66E0BEC21F0E8EC22F0E8ECA3
:1044280022F0D8DF120010041110D8B481A812D0DD
:1044380066EC1FF0ACA2FED71CC0ADFF1CC01DF07F
:10444800E8EC22F002D066EC1FF0440E1C18D8B439
:104458001200F9D72BEC23F052501D6EACA2FED7F8
:104468001DC0ADFF0D0EAE18D8B41200FBD7000E5C
:104478003C6E37AE06D0366C371ED8B0372A010EE0
:104488003C6E3C50E66E8E0EE66E36C039F037C094
:104498003AF03B6A39C0E6FF3AC0E6FF3BC0E6FFA8
:1044A800C1EC1CF052C036F053C037F054C038F09D
:1044B8001200FA0EE35007E1FB0EE35004E1FC0E94
:1044C800E350D8B402D0FC0EE37EFA0EE3CFE6FF49
:1044D800E3CFE6FFE3CFE6FFFA0EE3CFE6FFE3CF55
:1044E800E6FFE3CFE6FF00EC0CF0FA0EE126FF0E44
:1044F800E2221200E652FF0EE36AFE0EE3CF52F00C
:104508003A0E526009D0FE0EE3CF52F02F0E5264DD
:1045180003D0FF0EE36AE32AFF0EE3CF5DF05D30C0
:104528005290D8B05280E552E5521200C00EF66E95
:10453800460EF76E000EF86E00EE41F020EE11F018
:104548000900F5CFEEFFDD50D950FAE100EE01F099
:10455800260EEE6AE806FDE1000EF86E00018EEF09
:1045680020F0000EE66E8E0EE66EFC0EE3CF5CF0D9
:10457800FD0EE3CF5DF05CC058F05DC059F05A6A9B
:1045880058C0E6FF59C0E6FF5AC0E6FFC1EC1CF070
:10459800E552E5521200FD0EE35007E1FE0EE3502E
:1045A80004E1FF0EE350D8B402D0FF0EE37EFD0E07
:1045B800E3CF52F0FE0EE3CF53F0FF0EE3CF54F0FB
:1045C800E552E552E55212000A6A0B6A0BBE06D0A4
:1045D8000B500EE1190E0A5CD8B01200820E526E12
:1045E800DE0EE82EFED7522EFCD70A4A0B2AEED74B
:1045F8001200FE0EE3CFA9FFFD0EE3CFA8FFA69E93
:10460800A69CA684550EA76EAA0EA76EA682A6B271
:10461800FED7E552E552E55212008E0EC16EE10E4C
:10462800926EC00E936ED00E946E9568040E966EC0
:10463800100E806E81981200949C948E0F0EAF6EAF
:10464800AC98AC94AC9CAB8EAC8AAB881200E652AA
:104658009EAAFED7FF0EAECFE3FFFF0EE3CF52F0C8
:10466800E5521200FE0EE3CFA9FFA69EA69CA680E7
:10467800A8CF52F0E552E5521200F60EE66E7F0E14
:10468800E66E0BEC21F048EC20F0F2EC1AF0120088
:10469800F294F28AF194060ED56E670ED76E6A0E02
:1046A800D66E1200D08EF28EF298F19CF29293940C
:1046B80093808194939612000300E77FDE7FDE7F6C
:0946C800010010005000B0460092
:1046D200D08E9E9C9F9C9D9CF28CF28E819A1200A1
:1073120000010000000A00000064000000E8030011
:107322000010270000A086010040420F00809698BE
:107332000000E1F50500CA9A3B00803FCDCC3DD765
:10734200233C12833AB7D138C62737388635C0D6A0
:1073520033CC2B32708930E7DB2EE53C1E42A20D86
:1073620000803F00204100C842007A44401C465041
:10737200C34724744997184BBCBE4C6B6E4E031521
:107382005079AD60F349710A0D506C6561736520E7
:10739200656E74657220746865206E657720546529
:1073A2006D70657261747572652053656E736F726C
:1073B20020416C61726D205468726573686F6C64F1
:1073C20020283220646967697473293A20000A0D03
:1073D200456E746572207468652070617373636FA3
:1073E200646520746F20726573657420746865200B
:1073F200616C61726D20616E642072657475726E6B
:1074020020746F206D61696E206D656E752E000AA5
:107412000D2A2A2A2A2A2A2A2A2A2A2A2A2A2A2AE7
:107422002A2A54656D7065726174757265205365A0
:107432006E736F7220416C61726D202A2A2A2A2A89
:107442002A2A2A2A2A2A2A2A2A2A2A2A2A2A000AE4
:107452000D2A2A2A2A2A2A2A2A2A2A2A2A2A2A2AA7
:107462002A2A2A2A2A2A5049522053656E736F7299
:1074720020416C61726D202A2A2A2A2A2A2A2A2A63
:107482002A2A2A2A2A2A2A2A2A2A2A2A2A2A000AA4
:107492000D212121212121212121212121212054BC
:1074A200656D70657261747572652053454E534FF8
:1074B20052204841532044455445435445442021D9
:1074C20021212121212121212121212121000A0DF6
:1074D2002A202020202020202020202020202020A0
:1074E2002020202020202053756D616E2053687269
:1074F2006573746861202020202020202020202015
:1075020020202020202020202020202A000A0D2AAE
:107512002020202020202020202020202020204346
:10752200534520333434323A20456D6265646465D4
:10753200642053797374656D7320492020202020C4
:10754200202020202020202020202A000A0D2A206E
:107552002020202020202020202020202020202029
:1075620020416C61726D2053797374656D2069736B
:1075720020436F6E6E656374656420202020202096
:107582002020202020202020202A000A0D2A20202E
:107592002020204C61622037202841424554292076
:1075A2002D205374616E64616C6F6E652050494387
:1075B200207769746820436F6D6D756E69636174BD
:1075C200696F6E20202020202A000A0D2A2A2A2AEA
:1075D2002A2A2A2A2A2A2A2A2A2A2A2A2A2A2A2A09
:1075E2002A2A2A2A2A2A2A2A2A2A2A2A2A2A2A2AF9
:1075F2002A2A2A2A2A2A2A2A2A2A2A2A2A2A2A2AE9
:107602002A2A2A2A2A2A2A2A000A0D2A2A2A2A2A3F
:107612002A2A2A2A2A2A2A2A2A2A2A2A2A2A2A2AC8
:107622002A2A2A4D41494E204D454E552A2A2A2AB8
:107632002A2A2A2A2A2A2A2A2A2A2A2A2A2A2A2AA8
:107642002A2A2A2A2A2A2A000A0D21212121212135
:1076520021212121212121205049522053454E53DD
:107662004F522048415320444554454354454420F9
:107672004D4F54494F4E20212121212121212121E9
:107682002121212121000A0D20202020202020203C
:1076920020352E20557365204B6579706164204139
:1076A2007320546865204F6E6C7920496E70757432
:1076B2002028274427203D20456E746572204B65A3
:1076C2007929000A0D2A2A2A2A2A2A2A2A2A2A2A31
:1076D2002A2A2A2A2A2A2A2A2A50415353434F4421
:1076E20045204D454E552A2A2A2A2A2A2A2A2A2A5A
:1076F2002A2A2A2A2A2A2A2A2A2A2A2A2A2A000A32
:107702000D2A2A2A2A2A2A2A2A2A2A2A2A2A2A2AF4
:107712002A2A2A2A4368616E67652050617373635F
:107722006F64652A2A2A2A2A2A2A2A2A2A2A2A2AFD
:107732002A2A2A2A2A2A2A2A2A2A000A0D2020202C
:10774200202020202020362E2055736520424F54C1
:107752004820546865204B6579626F6172642061CC
:107762006E64204B657970616420417320546865B2
:1077720020496E707574000A0D546869732069732C
:1077820020796F75722066697273742074696D65F1
:107792002E20536F2C204C65742773207365742040
:1077A200757020796F75722070617373636F646591
:1077B2002E000A0D4E65772054656D7065726174F6
:1077C2007572652053656E736F7220416C61726DC4
:1077D200205468726573686F6C64206861732062FC
:1077E20065656E207365742E2E000A0D2020202000
:1077F2002020202020342E20557365204B6579628D
:107802006F61726420285465726D696E616C292003
:10781200417320546865204F6E6C7920496E7075F3
:1078220074000A0D446F20796F752077616E7420A1
:10783200746F2064697361626C652074686520618D
:107842006C61726D206F72206B65657020656E6170
:10785200626C65643F000A0D446F20796F75207772
:10786200616E7420746F206368616E67652074684E
:10787200652054656D706572617475726520546817
:10788200726573686F6C642E000A0D4469736162DD
:107892006C65206F72204B65657020656E61626C4D
:1078A200656420746865205049522053656E736F79
:1078B2007220416C61726D3F000A0D202020202051
:1078C20020202020496E636F727265637420496EB6
:1078D200707574206F7074696F6E732073656C6558
:1078E20063746564212121000A0D202020202020BC
:1078F200202020332E2054656D706572617475727C
:10790200652053656E736F7220416C61726D204FFA
:107912007074696F6E73000A0D506C656173652037
:1079220070726573732027302720616E64202745AB
:107932006E7465722720746F20636F6E74696E7542
:10794200653A20000A0D2020202020332E20436893
:10795200616E67652054656D7065726174757265DC
:1079620020616C61726D205468726573686F6C641B
:10797200000A0D496E636F72726563742050617301
:1079820073776F726420456E746572656421210A93
:107992000D54727920416761696E2121000A0D54EC
:1079A200656D70657261747572652053656E736F73
:1079B2007220686173206265656E206B6570742049
:1079C200656E61626C65642E000A0D506173737797
:1079D2006F726420686173206265656E20726567EC
:1079E2006973746572656420737563636573736626
:1079F200756C6C79000A0D2020202020312E204544
:107A02006E61626C652054656D7065726174757229
:107A1200652053656E736F7220416C61726D200038
:107A22000D0A456E74657220746865207061737307
:107A3200776F726420746F20726573657420746846
:107A42006520616C61726D3A20000A0D20202020B1
:107A520020496E636F727265637420496E7075742B
:107A6200206F7074696F6E2073656C6563746564F2
:107A7200212121000A0D50617373636F64652068D0
:107A82006173206265656E206368616E676564205C
:107A92007375636365737366756C6C792E000A0D7A
:107AA20054656D70657261747572652053656E738D
:107AB2006F7220686173206265656E20646973610C
:107AC200626C65642E000A0D496E636F72726563A3
:107AD200742050617373776F72642E2E2E2E205491
:107AE200525920414741494E21210A0D000A0D54A5
:107AF200656D70657261747572652053656E736F22
:107B02007220686173206265656E20656E61626CC9
:107B120065642E000A0D4B65657020456E61626CCE
:107B22006564203D2031202020207C20202020441C
:107B3200697361626C65203D2030000A0D202020AF
:107B4200202020202020322E205049522053656EC2
:107B5200736F7220416C61726D204F7074696F6E29
:107B620073000A0D43757272656E7420496E7075EA
:107B720074204D6574686F643A20202020202020F4
:107B82002020202020000A0D5049522053656E7398
:107B92006F7220416C61726D2053746174653A207A
:107BA200202020202020202020000A0D54656D7006
:107BB2006572617475726520416C61726D205374D7
:107BC2006174653A202020202020202020000A0D08
:107BD20054656D706572617475726520416C617275
:107BE2006D205468726573686F6C643A202020209F
:107BF20020000A0D43757272656E742054656D70B3
:107C0200657261747572652052656164696E673A66
:107C12002020202020000A0D596573203D203120AC
:107C2200207C2020204E6F203D20300A0D496E70AE
:107C3200757420486572653A20000A0D2050495239
:107C42002053454E534F5220414C41524D204953EF
:107C5200204B45505420454E41424C4544000A0DAC
:107C62002020202020322E2044697361626C65201E
:107C720054656D706572617475726520416C6172D4
:107C82006D000A0D2020202020312E20456E6162D9
:107C92006C65205049522053656E736F7220416C9F
:107CA20061726D20000A0D2020202020322E2044F7
:107CB200697361626C65205049522053656E736F1F
:107CC2007220416C61726D000A0D506C65617365C2
:107CD20020656E74657220342D6469676974207042
:107CE200617373636F64653A20000A0D20496E76F2
:107CF200616C69642050617373636F64652E2E201A
:107D020054727920416761696E2121000D0A456E26
:107D1200746572207468652070617373776F726422
:107D220020746F206C6F67696E3A20000A0D50490B
:107D3200522053656E736F722068617320626565AD
:107D42006E2064697361626C65642E000A0D2020E6
:107D520020202020202020302E205265667265735C
:107D620068204D61696E204D656E75000A0D496E81
:107D7200636F72726563742050617373636F6465BD
:107D820020456E74657265642121000A0D4E6F20D4
:107D920053656C656374696F6E20686173206265F8
:107DA200656E206D6164652E2E000A0D50495220C9
:107DB20053656E736F7220686173206265656E2011
:107DC200656E61626C65642E000A0D53656C6563B5
:107DD20074206F6E65206F662074686520666F6C14
:107DE2006C6F77696E673A000A0D202020202020F0
:107DF200202020312E2050617373636F6465204F01
:107E02007074696F6E73000A0D57656C636F6D65F0
:107E120020746F2074686520416C61726D20537903
:107E22007374656D000A0D2020202020302E205210
:107E3200657475726E20746F204D61696E204D6598
:107E42006E75000A0D2020202020302E20526574ED
:107E520075726E20746F206D61696E206D656E752E
:107E6200000A0D456E61626C65203D203120616E15
:107E7200642044697361626C65203D2030000A0D04
:107E8200506C656173652073656C65637420796FEE
:107E92007572206F7074696F6E3A000A0D20504936
:107EA200522053656E736F7220416C61726D204473
:107EB200697361626C6564000A0D456E74657220B7
:107EC20043757272656E742050617373636F64657B
:107ED2003A2020000A0D496E636F72726563742046
:107EE200696E707574206F7074696F6E2121210044
:107EF2000A0D506C656173652073656C656374204F
:107F0200796F75206F7074696F6E3A000A0D205098
:107F120049522053656E736F7220416C61726D20FD
:107F2200456E61626C6564000A0D202020202031BC
:107F32002E204368616E67652050617373636F64BE
:107F420065000A0D456E746572204E65772050619A
:107F52007373636F64653A20000A0D4E6F20736578
:107F62006C656374696F6E206D6164652E000A0D25
:107F7200436F6D706F6E656E7420537461747573A8
:107F82006573004B6579626F61726420414E4420D3
:107F92004B6579706164004B6579626F6172642030
:107FA200616E64204B6579706164000A0D496E76DA
:107FB200616C69642053656C656374696F6E000A55
:107FC2000D456E7465722070617373636F64653AF8
:107FD20020000A0D496E7075743A2000494E4143E3
:107FE20054495645004B6579626F617264002532CF
:0D7FF2002E3266001B5B324A002564000041
:020000040020DA
:08000000FFFFFFFFFFFFFFFF00
:020000040030CA
:0E000000FF021F1EFF8381FF0FC00FE00F40A5
:00000001FF
